:020000040800F2
:10600000C80A0020ADFF0108B1FF0108B1FF010877
:106010005D190208B1FF0108B1FF0108B1FF0108D5
:10602000B1FF0108B1FF0108B1FF0108B1FF01088C
:10603000B1FF0108A4C8020829F60108B1FF010850
:10604000B1FF0108B1FF0108B1FF0108B1FF01086C
:10605000B1FF0108B1FF0108B1FF0108B1FF01085C
:10606000B1FF0108B1FF0108B1FF0108E9C900084B
:10607000511B0208B1FF0108B1FF0108B1FF01087F
:10608000B1FF0108B1FF0108B1FF0108B1FF01082C
:10609000B1FF010815AA0008B1FF0108B1FF01080E
:1060A000B1FF0108E9780008C9780008B1FF0108CC
:1060B000B1FF010859D7010855E00108CDA6020833
:1060C000C9A60208A1D70108E3A60208D1A60208C2
:1060D00025E00108D5A6020831ED010895E0010888
:1060E000B1FF0108B1FF0108B1FF0108B1FF0108CC
:1060F0003F100208B1FF0108B1FF0108B1FF01081C
:10610000B1FF0108B1FF0108B1FF0108B1FF0108AB
:10611000B1FF0108B1FF0108B1FF0108B1FF01089B
:10612000B1FF0108B1FF0108B1FF0108B1FF01088B
:10613000B1FF0108B1FF0108B1FF0108B1FF01087B
:10614000B1FF0108B1FF0108B1FF01087DC60208D7
:1061500029C30108B1FF010855C1010889C101081F
:10616000B1FF0108B1FF0108B1FF0108B1FF01084B
:10618000F0B5114A114C124E00F00105E3695F07AA
:1061900013D40DB9334213D103EA00078F4207D15C
:1061A0000B4A1A40002A14BF6FF001000020F0BD16
:1061B000013AEBD16FF00200F9E74FF0FF30F6E75C
:1061C0006FF00100F3E700BF8096980000000350D5
:1061D000020001000B4B70B5D96911F480310DD16B
:1061E00001244FF48072084E084DF46020462C6460
:1061F0001A61FFF7C5FF3464EC6070BD6FF00100F9
:10620000FBE700BF000003500010035000200350C4
:106210004FF4803238B50E4B0E4C9A66E56941F664
:10622000713315400122E3630B4B0021DA60022336
:10623000606121202361FFF7A3FF10B92120FFF740
:106240009FFF0122054BDA600DB10023E36338BDE7
:106250000090005000000350001003500020035035
:1062600070B5134C6061E3695B071ED40E4656F8A7
:10627000043B8D18A361AE420BD1042300212120E1
:106280002361FFF77DFF58B9BDE870402120FFF77B
:1062900077BF08210846FFF773FF10B1042323617D
:1062A00070BD56F8043BA361E5E74FF0FF30F7E718
:1062B000000003502DE9F84316464FF48032184B86
:1062C00089469A6603F51C33DA69074602F480387A
:1062D00041F67132DA63012203F58053114DDA6021
:1062E00066B930460122104BDA60B8F1000F03D0D6
:1062F0000022A3F50053DA63BDE8F88307F50054E4
:106300002C40E41BB44228BF344649462246384656
:10631000FFF7A6FF0028E5D12744A144361BDFE79D
:106320000090005000E0FFFF00200350000000003C
:10633000000000000000000000000000000000005D
:10634000013800D0FCE770470348044B834202D079
:10635000034B03B118477047C0250020C02500201B
:1063600000000000064B0749C91A891048BF0131D7
:10637000491003D0044B0BB101481847704700BFC8
:10638000C0250020C02500200000000010B5064CEC
:10639000237843B9FFF7D8FF044B13B10448AFF398
:1063A00000800123237010BD202000200000000089
:1063B0002829030808B5054B1BB105490548AFF36B
:1063C0000080BDE80840FFF7CDBF00BF000000001F
:1063D000680D002028290308A3F5803A704700BF04
:1063E000174B002B08BF134B9D46FFF7F5FF00210D
:1063F0008B460F461348144A121A1BF04BFC0E4BE7
:10640000002B00D098470D4B002B00D09847002060
:10641000002104000D000D48002802D00C48AFF305
:10642000008006F061FF200029001BF093FB06F0BE
:10643000D5FD00BF000008000000000000000000C3
:10644000C80A0020C80A00208021002000000000A7
:106450000000000037B5044609F072FA00283BD16D
:106460001E4B20766361A36843F48013A3601BF086
:10647000DAFAA368A0801B030CD4B0F5FA7F09D91F
:1064800025F091FD01210546084624F08DFF2846A0
:1064900025F084FD204609F07BFA0546C8B910486E
:1064A0000BF0B8FF1DF0A3F81EF0B6FC1CF01DFEAB
:1064B0002A46012104201DF06FF801A88DF8045030
:1064C00009F01CFC042003210BF0C4FC204619F049
:1064D000A1F8284603B030BD0025FAE70504030003
:1064E0009625002008B50449044811F0B1FABDE82A
:1064F000084011F0DDBA00BF6CC70208F8C70208F7
:106500004FF08052014B5A60704700BF00ED00E031
:1065100008B5044825F0CDFE1BF0C5FABDE80840DB
:1065200000F008B86CCD0208014825F0C2BE00BFDB
:106530006CCD02082DE9F0415D4C92B009AD94E8B4
:106540000F0085E80F000DAA174604F1100304F1AF
:10655000200C164618685968083303C6634532464E
:10656000F7D11868534B08A93060187925F09CFEC4
:10657000514825F09EFE514825F09BFE4FF4807354
:1065800008984F49ADF83430814228BF01460C9736
:1065900019F047FF294602250A904A4802F064FE96
:1065A000484819F0E6FE474819F00CFF454819F035
:1065B000F5FEB4F82480012204216846ADF800807D
:1065C00019F08BFDE78C0022012101A8ADF80470C1
:1065D00019F083FD268D0122042102A8ADF8086080
:1065E00019F07BFD0122042103A8374CADF80C50B3
:1065F00019F073FD354B4FF44870C4F8C8344FF0B0
:106600000213C4F8C43403F58033C4F8CC341C231B
:10661000C4F8B43405F030FD07A8ADF81C5001F003
:10662000A5F8142005F028FD07A8ADF81C5001F0CE
:106630008DF8232005F020FD07A8ADF81C5001F0CF
:1066400095F8B9211F4819F0E2FE07A8ADF81C50D3
:1066500001F07CF8002204A81146ADF8108019F072
:106660003CFD002205A81146ADF8147019F035FD67
:106670000122002106A8ADF8186019F02EFD0122B4
:10668000002107A8ADF81C5019F027FD0D4802F0B5
:10669000B1FD00230948C4F8B434C4F8C834C4F8C0
:1066A000C434C4F8CC3425F007FE12B0BDE8F08144
:1066B00078C802089CCD02086CCD020870CD020893
:1066C000E070720000000A5000C003500200010098
:1066D0004FF000639B6A03F17842B2F5C04F03D2DA
:1066E0001968064A914203D0002303708360704703
:1066F000012202709A689B694260F7E707B0CD5E9D
:1067000037B53A4B04461A781AB102221A7003B010
:1067100030BDCDE900220028F9D001251D7025F0FB
:106720004BFC334B186014F027FD324B5A6E6261FC
:106730009B6E314AA3614FF4804393662F4B596897
:10674000E1612F499960196E2160596E6160D3F83B
:106750007011A160196CE160596C21612949086CC4
:106760001864496C596455661B6E9C0426D5264AEC
:10677000D368D807FCD4254B1A68531C23D04FF498
:1067800080139340224A13660423214C68462366F3
:106790004FF400732366082323664FF48053236667
:1067A0004FF0006323664FF4002301A9636618F0DD
:1067B00051FF009B2366019B6366A8E7154AD368D7
:1067C000D907FCD4D7E7144B1B78002BDCD14FF44E
:1067D0000072094B5A6603F5A6235B68002BD3D1E0
:1067E0004FF480120A4B1A66CEE700BF2220002029
:1067F000A00D002000800050009000500080004458
:1068000055CEAC0000C000540000044040230020DE
:1068100000900044000004502120002070B5224D5B
:1068200004462E78012E02D001232B7070BD002863
:10683000FCD018F029FF01300BD018F025FF40F2F2
:106840000113984205D0194B194A5E66D368DE07DA
:10685000FCD42268174B1A6662685A66A268C3F8AD
:106860007021E2681A6422695A64E269D00744BF61
:1068700000229A60104B1A68013207D10F4A127831
:1068800022B90F494968C90748BF1A6062690D4BB0
:106890005A66A2699A6614F077FC0B4B186825F0CB
:1068A00086FB0023C1E700BF2220002000900040AB
:1068B00000000440008000444023002021200020EC
:1068C00000C0055000800050A00D002038B54FF0EA
:1068D0000064A36A03F17842B2F5C04F17D21A6878
:1068E0000D4B9A4213D10D4D2B7813F0FD0F11D1A2
:1068F0000B48FFF705FFA36ADB6998470446084881
:10690000FFF78CFF0CB901232B70204638BD4FF4E4
:106910008174FAE70024F8E707B0CD5E212000205B
:10692000800D00204FF4803208B5044B9A6625F0A4
:1069300017FFB0FA80F0400908BD00BF009000507A
:10694000134610B562B103439B070BD14FF480345B
:10695000054B9C6625F000FFB0FA80F0400910BDA1
:106960000120FCE70020FAE70090005010B518B3B2
:106970000268134B9A4220D18379013B012B1CD82A
:10698000C279012A19D108210E4B5966002103F55D
:10699000FE235A6099604FF0FF311961DA600246B8
:1069A00000F1080112F8014B91421C62FAD1806893
:1069B0005B6AC31A5842584110BD0020FCE700BF73
:1069C00050504D53009000507FB5002301240646DF
:1069D00001A8CDE902330D468DF80440FFF778FE9B
:1069E000039B5B0202D4002004B070BD4FF0006333
:1069F0009B6A03F17842B2F5C04FF4D21B6B002BB7
:106A0000F1D05B6C002BEED029463046984786B11A
:106A10007DB13268B2F1006FE5D32B68B3F1006F3E
:106A2000E1D30548824298BF834294BF01200020F1
:106A3000DAE72046D8E700BFFFFF17087FB5054615
:106A40000C46684601A91646FFF7BEFF28B13DB1C6
:106A5000009D2846FFF766FF20B9002004B070BDF6
:106A6000019DF6E7012208211B4B8DF80B200193B5
:106A70001A4BADF808408DF80A605966002103F5FD
:106A8000FE235A6099604FF0FF311961DA600722E6
:106A900001A911F8010B013A1862FAD204225B6ACB
:106AA00044EA064444F080746946A81803930094AD
:106AB000FFF746FF0028D0D0042203A905F1080003
:106AC000FFF73EFF0028C8D0042228460DEB020144
:106AD000FFF736FFC2E700BF50504D530090005003
:106AE00010B50A46044619B1024B00211B689847AD
:106AF00010BD00BFF4C802080E4B0340B3F1607F25
:106B000006D1B1F5885F0CBF00206FF0860070479A
:106B1000B3F1707F0BD101F4E043B3F5005F06D110
:106B200011F4E06F14BF00206FF0860070476FF023
:106B3000860070470000C07F8A42F8B506460D46C1
:106B400000F0CD806A4B22F4FF7121F001019942DF
:106B500010D0684922F0FF038B420BD022F47F70E3
:106B600020F00300A1F57061884203D001F5A06117
:106B70008B4227D15E4B25F4FF7121F00101994230
:106B800010D05C4925F0FF038B420BD025F47F70B9
:106B900020F00300A1F57061884203D001F5A061E7
:106BA0008B420FD115F0FF000BD0534B40F000701B
:106BB000984240F0968082EA0500FF288CBF0020B2
:106BC0000120F8BD05F0FE43B3F1A06F11D102F032
:106BD000FE43B3F1A06F72D182EA050333F47E1352
:106BE0006DD128046BD5C5F30540C2F30542904230
:106BF000E4E7B3F1407F62D102F0FE43B3F1407F9E
:106C00005DD182EA050030F47E1458D13146284621
:106C1000FFF772FF002864D1384912F47C1701EAAB
:106C2000020116D0B1F1607FC2F3054336D1D1B273
:106C300041F0007101F17E410339102901D830483B
:106C4000445C15F47C1F2FD19C4214BF002001200E
:106C5000B7E7B1F1607F0AD1D3B243F0007303F11B
:106C60007E43033B102B40D82649CB5CDFE7B1F1D4
:106C7000707F17D106F4E043B3F5005F33D10123F1
:106C8000C6F302218B4006F4E041B1F5005FD8D194
:106C90000120C6F3022600FA06F4D2E7B1F1707FB4
:106CA000CFD1F0E73B46CCE71FB9C5F30541A14280
:106CB00015D0290403D5C5F3054098427EE725F495
:106CC0007F03B3F1106F0CD102F0FE43B3F1106FEC
:106CD00007D10D48104040F01060A842B5E70120F0
:106CE0006FE700206DE73B46CDE73B469FE700BFDF
:106CF0000002000600130006FF0000020000C07F33
:106D0000F8C80208F8C802080000FFF637B50D4DB4
:106D10000C466B78022B12D12B78072B0FD1002356
:106D20000A460193014601AB281D19F0E6FE20B981
:106D3000019BA34218BF6FF0930003B030BD6FF00A
:106D40008800FAE7A40D002038B500F0FE43B3F147
:106D5000407F04460D4602D06FF0860038BDFFF735
:106D6000CBFE0028F8D114F47C1F18D0C4F30543DF
:106D7000032B137022D9224A2240B2F1607F31D115
:106D8000E4B244F0007404F17E44033C102CE3D8D8
:106D90001C4A125D9342DFD8142BDFD90EE0184B4A
:106DA0002340B3F1607F0FD1E3B243F0007303F1EE
:106DB0007E43033B102B04D9002313706FF0850032
:106DC000CCE71149CB5CD3E7B3F1707FF4D101F488
:106DD000E043B3F5005FEFD10123C1F302218B4003
:106DE000DBB2C5E7B2F1707FB6D105F4E042B2F58F
:106DF000005FB1D10122C5F30225AA40CAE700BF56
:106E00000000C07FF8C80208F8C802082DE9F8435E
:106E1000884617461C4600F0A3FA0546002844D1D0
:106E2000D8F80060B6F8009009F4E043B3F5804F5D
:106E3000B36808BF27F0010737EA03032DD1A4B3D5
:106E4000244B24F4FF7222F001029A4210D0224A0D
:106E500024F0FF0393420BD024F47F7121F003014F
:106E6000A2F57062914203D002F5A06293421FD155
:106E700014F0FF0304D0194A43F0007393421ED06C
:106E800022464846F168FFF757FE074668B9224692
:106E900048463169FFF750FED0B96FF084050023F2
:106EA0003046C8F8003019F018F82846BDE8F883D5
:106EB00004F0FE43B3F1407F04D12304E0D56FF02A
:106EC0008605ECE7B3F1A06FF7D0044B9C42D6E700
:106ED0003D46EAE70002000600130006FF0000023C
:106EE0002DE9F04F064600208BB00F461446994618
:106EF000CDE9060009921860002A00F09F80B2F1E7
:106F0000005F80F09E8006AA314607AB18F028FD8E
:106F1000024628BB069B5A6A8AB1069DA8466A6843
:106F20006B88120A012A089358F824AF2B6A6ED096
:106F300045498A4260D01AB36FF0860210E0736848
:106F40001B0A15D0012B04D03F498B420FD0099268
:106F5000F2E7304609A9099418F0DAFE024638B182
:106F6000DDE90601059218F049FD059A5FE00994F4
:106F70000999069818F06DFC02460028CDD0EFE77D
:106F80000DF1200B224639462846CDE9018BCDF87C
:106F900000A0059319F087FF10F1860F0246059BAC
:106FA00009D1224639462846CDE9018BCDF800A00B
:106FB00018F062FC0246069B002AD1D15888089935
:106FC00080BB59804FF6F870814234D8318811B1B6
:106FD00018888842B0D1718811B158888842ABD1E5
:106FE0005969C9F80010197E01291ED000236FF0DD
:106FF0009602C9F80030B3E708AACDE90182394604
:1070000022462846CDF800A019F04DFFD2E708AA85
:10701000CDE90182394622462846CDF800A019F074
:1070200080FEC7E7884287D1CCE702211976104657
:107030000BB0BDE8F08F6FF0850291E76FF086022C
:10704000F5E76FF08502F2E7020080002DE9F043DA
:10705000994600230C46016885B005461746039300
:1070600000295BD100F10808982240461AF012FE70
:10707000B9F1000F20463B460CBF4FF400624FF4BD
:10708000806203A9FFF7C2FE0446002848D1039C92
:10709000384621882A1DFFF757FE0646002844D1AE
:1070A0006B7969F300036B716168D4E90823090AFD
:1070B000B9F1000F20D0012915D01E48814200D01F
:1070C000A9BB21464046009719F042FF044638BB51
:1070D00004232B60039818F000FF002E18BF3046E1
:1070E00005B0BDE8F08321464046009703F012F951
:1070F0000446A8B90523ECE7012909D00D488142CF
:1071000000D0A1B921464046009719F069FFDDE79C
:1071100021464046009719F0E7FEE9E76FF0880442
:10712000284618F06FFC2646D4E70446F8E76FF0CF
:107130008604F5E702008000002307B51A46009197
:10714000024918F0F2FC03B05DF804FB0CC9020818
:1071500010B5114C2378580744BF03F0FB0323708C
:10716000990705D500F09CF8237823F002032370DB
:1071700063781BB10023094A636053600023082130
:1071800006486370FFF7ACFC2378DA0744BF23F0AE
:107190000103237010BD00BFA40D0020A80D002026
:1071A00038B51A4D6A782B78022A01D1072B1DD0E9
:1071B000DC070BD419F096FC044610B919F09BFCBF
:1071C00004462B7843F001032B70E4B9980707D4E9
:1071D00000F05EF82B78044643F002032B7090B960
:1071E0006A780AB9D90704D45A0708D5002420467A
:1071F00038BD07496A604A6002226A70F4E743F0CA
:1072000004032B70F2E7FFF7A3FFF0E7A40D0020C3
:10721000A80D002000F14042032A38B504460D466F
:107220000CD82821194B01FB02331A7E022A02D105
:107230005A6982421ED06FF08B0025E0012118F0C0
:1072400026FE70B1114A00201346117E022902D198
:107250005169A1420BD00130042802F12802F4D177
:10726000E9E76FF087000FE06FF096000CE028224E
:1072700002FB00331A7E022AF6D1DA69511CF3D0E0
:1072800000200132DA612B6038BD00BFB00D002054
:107290000122024B002083F8A0207047B00D00208F
:1072A0002DE9F0410A4C002526464FF0010803273E
:1072B0002046C4F81C802776013518F018FB042DF1
:1072C00004F12804F4D1002386F8A030BDE8F08151
:1072D000B00D0020F8B5214D064695F8A0300F46B8
:1072E000002B35D000242B462246197EF9B13CB93B
:1072F000022905D1D96919B91979002918BF1C4685
:107300000132042A03F12803EFD114B96FF08C0085
:107310000BE0237E022B04D1E3695A1C1CBF01330E
:10732000E361204618F0E3FA10B100240EE01C4699
:10733000237E83B9012323763EB1651BED1003F153
:10734000CC335D4305F18045356000203C60F8BDDD
:107350006FF08800E9E76FF09600E6E7B00D0020D7
:1073600038B50025084B0D6093F8A0300C4643B1AA
:10737000FFF750FF10F18C0F02D16FF087002560EE
:1073800038BD6FF08800FBE7B00D002008B503F0B2
:10739000FDFC014B186008BD540E0020024B034950
:1073A000186819F09DBE00BF540E002010C90208D5
:1073B00070B50C4C0C490646206819F091FE03F09C
:1073C000E5FC0546206803F0D5FC3046FFF7E6FFF4
:1073D000284603F0CFFC20680449BDE8704019F04E
:1073E0007FBE00BF540E002012C9020814C9020853
:1073F00007B5082018F05AFE0222064B6846CDE970
:10740000002318F077FD082003B05DF804EB18F0B6
:1074100058BE00BF006A1810BFF34F8F0549064BD6
:10742000CA6802F4E0621343CB60BFF34F8F00BF22
:10743000FDE700BF00ED00E00400FA050348044A40
:107440000449121A921018F0B4BD00BF8061000800
:10745000406300088021002008B5154B83F30A889B
:1074600000F030F8FFF7EAFF124B13498B4212D3BA
:107470000020124B12498B4218D3FEF7B1FF186857
:1074800050F82240586840F8224001329868824201
:10749000F5D30C33EAE70022F8E71C6844F8220031
:1074A00001325C68A242F8D30833E4E70022F8E72F
:1074B00008000020302903083C2903083C29030860
:1074C0003C2903084FF48041124B134A70B59A606F
:1074D000D3F88820114D42F47002C3F88820104A76
:1074E00005F5005491664FF0FF3222660D4A626640
:1074F0000222C3F8D020BFF34F8FBFF36F8F4FF43A
:107500004036002003F028FC0020E66003F008FC71
:107510002E6170BD00ED00E00060000800800044B6
:1075200000900050F7FF3700014B1860704700BF14
:1075300048230020054B1860054B1B6F03F0070321
:10754000032B01D123F0F8BA704700BF502300206D
:107550000080005030B5056887B0AB8804461848F5
:10756000ADF80C3024F0A5FE0022012103A818F08C
:10757000B4FD0DF10B0103A818F0DDFD9DF80B30F3
:1075800083F001032B70AB79022B15D14FF0FF3341
:107590000022CDE9043304A90A4B009403A800F0AB
:1075A0005BF9049B009401330CBF04220122054BBC
:1075B00005A903A800F0EAF8002007B030BD00BF1D
:1075C0006CCD0208F1FF0108002307B5294801939B
:1075D00024F06FFE4FF44073012204216846ADF899
:1075E000003018F07AFD0122234B0520C3F8442413
:1075F00001A924F059FE002839D1204BD3F8F020FE
:1076000042F00102C3F8F020D3F8FC2042F080726F
:10761000C3F8FC201A4AA3F55D431A60019B194A7E
:1076200003F5D52303F2FC43B3FBF2F3164A013B07
:1076300013610223C2F8F0304FF48073C2F80433B0
:107640004FF06043114AC3F8B02F114AC3F8802E9F
:10765000D3F8002E42F48072C3F8002EFF2283F884
:107660002020D3F8002E22F48072C3F8002E03B03D
:107670005DF804FB6CCD020800D0035000ED00E083
:10768000FF030040F8590D00000004E055CEACC5E2
:10769000090001004FF06043D3F8802E30B5D207C7
:1076A00015D501240B4D8440D5F8FC2042F08072A2
:1076B000C5F8FC20D3F8002E2243C3F8002E53F85F
:1076C0002020002AF0D003F82010002030BD112027
:1076D000FCE700BF00ED00E070B5044601260C4D4C
:1076E00004B970BD94FAA4F0B0FA80F006FA00F282
:1076F00024EA0204C200AA580F2805EBC001C8BF43
:107700001038002AECD04968C0B29047E8E700BFC3
:10771000580E002008B50C4824F0CBFD192003F0CA
:107720000DFB28B1192003F017FB192003F0F8FA1C
:107730001A2003F003FB28B11A2003F00DFB1A20D6
:1077400003F0EEFA002008BD6CCD020848B101221A
:10775000437801789A4030235943034B00205A5014
:1077600070472220704700BF40D0035048B101222B
:10777000437801789A4030235943034B00205A50F4
:1077800070472220704700BF40E003502DE9F041D0
:107790000D4690461F460446002836D0002934D0B6
:1077A00024F00AFC23780646FF2B05D042462046EB
:1077B000296801F05FFE28602868421C0BD12378FD
:1077C000FF2B1CD1124B6078D3F8241418F03CFE28
:1077D000431C286013D00F49069B41F8307001EB21
:1077E000C0014B602378FF2B04D001230A4A834059
:1077F000C2F82434304624F0DAFB002003E030469F
:1078000024F0D5FB2D20BDE8F0812220FBE700BF4E
:1078100000C00350580E002000D003500F2838B588
:10782000054613D824F0C8FB01230024084AAB40C6
:10783000C2F82034C2F82434064B43F8354003EB39
:10784000C5035C6024F0B3FB204638BD2120FCE773
:1078500000E00350580E00202DE9F0410D469046FF
:107860001F46044650B349B324F0A6FB23780646CE
:10787000FF2B05D042462046296801F081FE286092
:107880002A68531C14D00E49069B103241F83270FE
:1078900001EBC2014B602378FF2B04D001239340FE
:1078A000084AC2F82434304624F081FB002003E06B
:1078B000304624F07CFB2D20BDE8F0812220FBE740
:1078C000580E002000D0035008B501F079FD054B9B
:1078D00000F0553020F05020C3F82004BDE80840E7
:1078E000FFF7FABE00E0035008B501F069FD054B53
:1078F00000F0AA3020F0A020C3F82004BDE8084022
:10790000FFF7EABE00E0035013B504460A4824F02E
:10791000D0FCA2780421B2FA82F2237852098DF8C1
:10792000043063780DEB01008DF8053018F0D5FBBD
:10793000002002B010BD00BF6CCD0208044BD3F88C
:107940008420D206FBD4D3F88400C0F381107047A2
:107950000040005038B5174B0546D3F828310C4687
:1079600003F00703013B052B20D8DFE803F00313E6
:107970001B0F0B1723F0BAF8052305B1286004B1DB
:10798000236038BD23F0B2F80623F6E723F0F8F8B9
:107990000723F2E723F0EAF80323EEE723F0E6F803
:1079A0000423EAE723F0DEF80223E6E70023184683
:1079B000E3E700BF00800050002337B50193164B6A
:1079C0000546D3F820320C4603F00703042B21D8D8
:1079D000DFE803F0030B11161B0001230DB1019A20
:1079E0002A6004B1236003B030BD002101A8FFF775
:1079F000B1FF1223F2E723F0C3F807230190EDE76C
:107A000024F0E0FA0A230190E8E723F00DF90923B6
:107A10000190E3E70023E1E70080005038B5104B08
:107A20000546D3F880300C4603F00303022B0BD03D
:107A3000032B0DD0012B0FD123F05EF80E2305B1DF
:107A4000286004B1236038BD23F09AF80723F6E7D5
:107A500023F04CF80623F2E700231846EFE700BFB7
:107A60000080005038B5104B0546D3F800310C4665
:107A700003F00303022B0BD0032B0DD0012B0FD1EE
:107A800023F074F8032305B1286004B1236038BDE6
:107A900023F0CAF80923F6E723F06EF80823F2E78B
:107AA00001230020EFE700BF0080005038B5184BDD
:107AB0000546D3F820010C4600F00700062823D81D
:107AC000DFE800F0040A0E16121A1E00012305B1A9
:107AD000286004B1236038BD23F008F80523F6E7D9
:107AE00023F044F80323F2E723F04AF80723EEE7F4
:107AF00023F038F80223EAE722F0F8FF0623E6E74E
:107B000023F034F80423E2E700231846DFE700BF40
:107B10000080005038B5104B0546D3F840310C4674
:107B200003F00303022B0BD0032B0DD0012B0FD13D
:107B300024F048FA0A2305B1286004B1236038BD57
:107B400023F072F80923F6E724F03FFA0C23F2E75A
:107B500001230020EFE700BF00800050002337B56D
:107B60000193164B0546D3F860320C4603F0070329
:107B7000013B032B1FD8DFE803F0020E191400218C
:107B800001A8FFF793FF10230DB1019A2A6004B1F9
:107B9000236003B030BD002101A8FFF7BBFF112314
:107BA000F2E722F0EDFF07230190EDE722F0DAFF84
:107BB00002230190E8E70023E6E700BF00800050C1
:107BC000002337B50193164B0546D3F894320C4683
:107BD00003F00703013B032B1FD8DFE803F0020E7D
:107BE0001914002101A8FFF761FF10230DB1019ABC
:107BF0002A6004B1236003B030BD002101A8FFF763
:107C000089FF1123F2E722F0BBFF07230190EDE784
:107C100022F0A8FF02230190E8E70023E6E700BF77
:107C20000080005038B5104B0546D3F860310C4643
:107C300003F00303022B0BD0032B0DD0012B0FD12C
:107C400024F0C0F90A2305B1286004B1236038BDCF
:107C500022F0EAFF0923F6E724F0B7F90C23F2E754
:107C600001230020EFE700BF008000502E4B984218
:107C70004AD022D82D4B984240D014D82C4B984251
:107C800039D00AD82B4B984232D02B4B98422FD068
:107C90002A4B98422CD000207047294B9842FAD1A9
:107CA000284B186F7047284B98422AD0274B984290
:107CB000F1D1244BD3F880007047254B98422BD04C
:107CC00009D8244B984223D0234B9842E3D11D4B33
:107CD000D3F88C007047214B984221D003F57403F0
:107CE00003F510539842D6D1164BD3F8980070473D
:107CF000144B986D7047134B586E7047114B586F6B
:107D00007047104B986F70470E4BD3F88400704744
:107D10000C4BD3F8880070470A4BD3F8900070479B
:107D2000084BD3F8940070470048E8010024F400A1
:107D3000C0CF6A0080841E0000093D0040420F0051
:107D4000405DC6000080E00FC0EA210180BA8C01CE
:107D5000007E560380D54302006CDC020090D00305
:107D600073B50D460021114B0191D3F880410646B1
:107D700004F00304022C13D0032C0CD0012C13D1DB
:107D800001A8FFF793FE10240EB1019B336005B1EB
:107D90002C6002B070BD22F0F3FE07240190F3E7DF
:107DA00022F0E0FE0190EFE70C46EDE70080005086
:107DB00038B5104B0546D3F840320C4603F00303A8
:107DC000022B0BD0032B0DD0012B0FD124F0FAF88E
:107DD0000A2305B1286004B1236038BD22F024FFD6
:107DE0000923F6E724F0F1F80C23F2E70123002041
:107DF000EFE700BF0080005038B5144B0546D3F8BC
:107E000000020C4600F0070004281BD8DFE800F051
:107E100003090D111500012305B1286004B1236089
:107E200038BD24F0CFF80A23F6E722F0FDFE09233F
:107E3000F2E724F0CAF80C23EEE722F07DFE0F23D0
:107E4000800AE9E700231846E6E700BF00800050FB
:107E500038B5144B0546D3F808020C4600F007006D
:107E600004281BD8DFE800F003090D1115000123D9
:107E700005B1286004B1236038BD24F0A3F80A23BB
:107E8000F6E722F0D1FE0923F2E724F09EF80C2356
:107E9000EEE722F051FE0F23800AE9E7002318469F
:107EA000E6E700BF00800050B0F5207F1FD009D862
:107EB000B0F5007F15D003D868B1B0F5C07F0AD007
:107EC00000200CE0B0F5607FFAD10B4BD3F88000B6
:107ED000C0F3011003E0084B186FC0F3033001300A
:107EE0007047054BD3F89000C0F30460F7E7024BEE
:107EF000186FC0F38020F2E70080005002464FF474
:107F00008030104B10B598660020FFF7CDFF50432E
:107F100041F671320C4BDC69DA635A6804F4803440
:107F200022F4401259B90949884294BF0020012027
:107F3000000502435A600CB10022DA6310BD044907
:107F4000F2E700BF0090005000000350005A6202A8
:107F5000002D3101430905D0012B0CD0022B084B19
:107F600018BF002300F01F0039B103F58053012230
:107F700082401A607047034BF4E703F50053F6E7BD
:107F800068800050648000501FB50021B0F5807FEC
:107F90000446CDE9001100F0D2803AD85E2833D8EB
:107FA0005E2833D8DFE800F04532323232323232E6
:107FB00032323232323232323232323232323232A1
:107FC000323232323232323245AC45ACBCBCBCBC4F
:107FD000BCACC64E6BDC4EACACAC32323232323260
:107FE0003232ACACAC7EE6AC323232323232323289
:107FF0003232323232BC454545E14E4EEB8D63C1E3
:1080000032323232329E4500802870D0009804B05F
:1080100010BDB0F5D06F00F0A38035D8B0F5607F0B
:1080200079D01AD8B0F5007F65D005D8B0F5C07FFB
:10803000ECD122F081FD5CE0B0F5207F60D0B0F59E
:10804000407FE3D122F078FD02464FF42070FFF725
:108050002BFFB2FBF0F252085BE0B0F5B06F69D0D5
:108060000AD8B0F5806F5BD0B0F5A06FCED10021FB
:108070006846FFF7A1FCC9E7B0F5C06FC6D1002183
:108080006846FFF747FDC1E7B0F5106F6DD00ED819
:10809000B0F5086F78D0B9D8B0F5E06F6AD0B0F518
:1080A000F06FB3D100216846FFF7BCFDAEE7B0F535
:1080B000406F3AD013D8B0F5206F60D0B0F5286F7C
:1080C000A4D10021324B0391D3F8703203F00303A3
:1080D000012B02D103A8FFF71DFD039B39E0B0F58A
:1080E000486F93D100216846FFF76AFD8EE722F0C2
:1080F00003FD00908AE722F0FFFC0246204604E0E0
:1081000022F01AFD02464FF42070FFF7CDFEB2FBBD
:10811000F0F200927AE701A8FFF780FC019AEDE700
:1081200000216846FFF7C2FC70E700216846FFF7B0
:1081300011FC6BE700216846FFF712FE66E74FF07F
:10814000E02302911B695B0705D522F0F5FC029044
:10815000029B00935AE703A902A8FFF7DBFCF7E7AD
:1081600000216846FFF748FE50E700216846FFF708
:108170006FFE4BE700216846FFF71AFE46E7002135
:108180006846FFF7EBFC41E76846FFF76BFC3DE70D
:108190000080005008B58020FFF7F6FE034B9842A0
:1081A0009EBF4FF48032024B1A6708BD005A62022C
:1081B00000A000501FB503460020B3F5807F01905A
:1081C00000F0C58065D85D2B56D84C2B07D82D2BD9
:1081D00048D8232B2CD8019805B05DF804FB4D3B03
:1081E000102BF8D801A252F823F000BF45830008F5
:1081F000D7810008D7810008D7810008F3820008E2
:10820000D7810008D78100089F83000811830008E8
:10821000B782000895830008D7810008D78100083D
:10822000D7810008D7810008D7810008A9830008FA
:10823000243B092BCFD801A252F823F04583000834
:1082400045830008458300084583000845830008EE
:10825000D78100083B830008D7810008D38200083B
:108260007B8300083D2B00F083803E2BB3D10020A0
:1082700001A9FFF79DFDAEE7802BACD1504B1B6FE2
:1082800003F00703013B032BA5D8DFE803F0544DAF
:108290005052B3F5F06F6BD020D8B3F5B06F4CD01F
:1082A0000ED8B3F5607F71D095D3B3F5806F49D008
:1082B000B3F5A06F8FD1002001A9FFF77DFB8AE7FE
:1082C000B3F5D06F59D0B3F5E06FD0D0B3F5C06F30
:1082D00081D1002001A9FFF71DFC7CE7B3F5206FD9
:1082E0005DD00BD8B3F5086F4CD0B3F5106F7FF4A9
:1082F00072AF002001A9FFF7ABFD6CE7B3F5406F4B
:1083000048D0B3F5486F4FD0B3F5286F7FF463AF13
:108310002B4BD3F8703203F00303012B49D0022B0F
:108320000CBF1523002300E00523019353E703232B
:10833000FBE70823F9E70223F7E7002001A9FFF78D
:108340000FFD48E7002001A9FFF7B0FB43E74FF01E
:10835000E02302901B695B0705D522F0EDFB0D239E
:108360000393039BE1E703A902A8FFF7D3FBF8E718
:10837000002001A9FFF756FC2DE7002001A9FFF717
:108380003BFD28E701A9FFF76DFB24E701A9FFF7F3
:1083900045FB20E7002001A9FFF7DCFA1BE70020DE
:1083A00001A9FFF7DBFB16E7002001A9FFF708FC96
:1083B00011E7002103A8FFF7ADFB1123B5E700BFCC
:1083C000008000504FF48032074B0849586E03F587
:1083D00080535A664B6A23F001034B62C3035CBFB0
:1083E000034B5A66704700BF0080005000C0075022
:1083F00000A0005008B5FFF7DDFE092811D00A38AB
:10840000012802D94FF6FF7008BD4FF48002064BD9
:108410005A6603F5D8335B6ADB07F3D54FF4FA707D
:10842000F2E7024B1888EFE700900050F624002096
:1084300008B5FFF7BFFE03280ABF024B4FF6FF70D7
:10844000188808BDF424002038B504468020FFF7C2
:10845000B1FE032800F08A804FF48012544B4FF095
:10846000A0615A6645F60E03524AC2F88030524B5C
:1084700099624FF4803103F580539962936DD9036B
:10848000FCD4916D11F08041FBD1D4E900031B05B0
:1084900043EA0063E07B0343207B43EA0043607BC5
:1084A00043EA0033A07B43EA801313619069D4E967
:1084B00004531B0643EA856300F000400343A07E9B
:1084C000E57E0343207E43EA0043607E43EA0023C7
:1084D0009361136AE06923F00F03002843EA000365
:1084E00043EA850314BF0125002543EAC50313624F
:1084F000324D3CD194F82430916A94F82000DB008E
:10850000294043EA40130B4394F8211043EA011336
:1085100043F4803393622A49264A936D31EA030378
:10852000FBD14FF08071244881621369A56823F460
:10853000700343EA055313614FF00043836194F8DD
:1085400022300BB91F4B996294F823303BB94FF49A
:1085500080321C4B9A62174A936D5B00FCD494F8EE
:1085600025301BB1134B184AC3F8802038BD0228B0
:1085700008D11161154891614FF408524FF47F41C1
:1085800017F043FE0B4994F822308A6A94F82000D1
:108590001B062A4043EA4013134394F8242043EA7D
:1085A000C20394F8232043EA02438B62D7E700BF5B
:1085B000009000500040005A0050005AC7FFFEFED5
:1085C000030001000060005AF1A7FFFF3440005A89
:1085D000014B93F900007047A72500204FF40001DC
:1085E0001B4A437810B551664FF4D151022402F56D
:1085F000B832516217494F2B4C604FF0010428BF2D
:108600004F2301F580514C601169C903FCD40178F6
:1086100043EA01235361D0E901131B0143EA01231B
:10862000417B0B43017B43EA41039360C37B817B26
:108630001B0143EA4113417C0B43017C43EA4103A4
:108640005360837C13B16FF4D153536210BD00BFEC
:108650000090005000100250014B1880704700BF7E
:10866000F6240020014B1880704700BFF42400203E
:108670004FF4800208B5184B5A660223174A53601C
:10868000936813F48033FBD1012822D122F06EFAD3
:10869000134B984215D003F5122303F5F863984263
:1086A00013D0104B00EB8002400AB3FBF0F3520AE8
:1086B0000A49CA620B6301234B620022074B5A60CE
:1086C00008BD45F67A13084AF2E745F61A03074A49
:1086D000EEE75362F1E700BF009000500040025007
:1086E00000F0490264666666D8B80500BBCF050095
:1086F000B0F5207F10B50C4657D008D8B0F5007FF4
:1087000048D003D830B3B0F5C07F23D010BDB0F54A
:10871000607FFBD12949013CD1F8FC2012F0807226
:108720001EBFD1F8FC3023F08073C1F8FC3024491F
:10873000D1F8803023F0300343EA0414C1F88040BC
:10874000002AE3D01D4AD2F8FC3043F08073C2F80F
:10875000FC30DBE717F068FD17F074FD4FF4803153
:10876000184B174A1967136F013C23F4704343EA0F
:108770000434146722F0E0F90446FFF7DFF8C0F193
:108780000201204617F058FD00F036F8BDE8104011
:10879000FFF700BD0A4A4C1ED2F8903023F0F85380
:1087A00043EA0464C2F89040B0E7054A4C1E136FD8
:1087B00023F4806343EA84231367A7E700ED00E016
:1087C000008000500090005008B50121022000F008
:1087D00083F94FF42070FFF767FB054B187017F013
:1087E00023FD17F02FFD4FF48032024B1A6708BDAE
:1087F000232000200090005008B54FF4C070FFF710
:10880000C3FBBDE808400449884294BF012102210E
:108810004FF42070FFF76CBF80F0FA0238B50446C1
:1088200022F08AF90546FFF789F8C0F102012846CF
:1088300017F002FD0121002000F08EF92CB1FFF7A6
:10884000DBFFBDE83840FFF7A5BC034B4FF42070B9
:108850001978FFF74DFFF4E7232000204FF4C022E2
:1088600070B50546FFF702FA2F4B04465A6603F52A
:1088700098335A68012A04D12C494A605A689207F1
:10888000FCD48020FFF796FC052807D117F0CCFC1C
:1088900017F0D8FC4FF48032234B1A67244B24F096
:1088A00040749D4235D0234B9D4235D022F01EF9B5
:1088B0008542064603D90121284600F04DF91E4B9A
:1088C000DA6812F0060FFBD199689C609A686240E2
:1088D00012F4F81F23D12846FEF726FE8020FFF76A
:1088E00069FC05280DD122F027F90446FFF726F888
:1088F000C0F10201204617F09FFCFFF77DFFFFF754
:1089000049FCB5420ED8BDE870400121002000F0BE
:1089100023B944F00074C9E744F08074C6E73546D3
:108920009960DBE770BD00BF0090005000E001508F
:1089300040420F0080841E0000000150364B9842D8
:108940004FD01CD8354B984257D00ED8344B984254
:108950004FD008D8334B98422CD0334B984229D073
:10896000324B984226D0002327E0314B984234D036
:10897000304B9842F7D1304BD3F8BC301DE02F4B31
:10898000984232D00FD8A3F53703A3F5D8539842B5
:1089900037D003F5B70303F558639842E3D1264B6C
:1089A000D3F8C83009E0264B9842DCD1224BD3F8EB
:1089B000D03002E0204BD3F8A0304FF40021214A00
:1089C00023F040735166194A90421ED0154A9042D6
:1089D0001ED04FF0B44293607047174BD3F8B830B5
:1089E000EBE7154BD3F8C030E7E7134BD3F8CC30A7
:1089F000E3E7114BD3F8A430DFE70F4BD3F8B030E7
:108A0000DBE70D4BD3F8C430D7E743F00073E0E762
:108A100043F08073DDE700BFC0EA21018096980033
:108A2000404B4C0080841E0000093D0040420F0076
:108A3000405DC6000024F4000080E00F0048E8011B
:108A4000005A620200900050024A536B0342FCD16C
:108A5000704700BF00400950044A4178536F23F427
:108A6000407343EA01235367704700BF0040005042
:108A7000104A10B51369044643F00403136122F051
:108A800041FF17F0E4FB0C4B5B6E5B0142BF0B4BED
:108A90000B4AC3F82024BFF34F8FBFF36F8F30BF53
:108AA00017F0D6FB03F014FA1CB9BDE8104022F011
:108AB00043B810BD00ED00E00080005000E003501E
:108AC0000000FF0F034A0179D36E23F030030B43FC
:108AD000D366704700400050F8B504461C4BD3F8ED
:108AE0008420D106FBD4D3F88430C3F381139C4295
:108AF0002CD022F001F8012C064602D1214617F0B5
:108B00009BFB23F050FA4FF00072124B07465A6657
:108B1000204617F0A0FB4FF480630D4D621E93407A
:108B20002B676B6E9A0103D4D5F884309B060AD567
:108B3000384623F033FA022C08D13046BDE8F8401D
:108B4000002117F079BBD5F88430EAE7F8BD00BF03
:108B5000004000500060005010B50C4608B921F0EC
:108B6000CBFF074B21461B783BB1064B984204D8FC
:108B70000120BDE81040FFF7AFBF0220F9E700BFBA
:108B800024200020005A62020278034B01210020B9
:108B90001A70FFF7E1BF00BF242000204FF0004211
:108BA00038B5244B244C5A664AF6CD33656C0146E1
:108BB00005F00105236430BB0120FFF745FF636822
:108BC000DB0708D4002415B11B4B1C4A1A6421F0A2
:108BD0005EF9204638BD1A4B58600846194B226B87
:108BE000D20705D4984201D10724ECE70130F6E71B
:108BF0009842E7D1F8E70132236B13F0080305D060
:108C00008A42F8D1F0E700220E49F5E78A42EBD01C
:108C100020210B4A91620121A2F580525160064940
:108C2000084A886A800603D49342DDD00133F8E70E
:108C30009342DEE700900050004009503254FFFF9D
:108C40000060095040420F004FF0004238B5164B0B
:108C500001465A664AF6CD33144C154A656C2364B6
:108C600043780B205B0043F00103D363FFF7ECFE76
:108C700063688A7823F4F87343EA02136360CA785E
:108C80004B7943EA0223A3600A798B7943EA0223F2
:108C900023610878FFF782FFEB0744BF054B23648D
:108CA00021F0F5F8012038BD009000500040095037
:108CB000004000503254FFFF4FF00042124B70B59D
:108CC0005D6E03F580535A664AF6CD3304460F496C
:108CD00080204E6C0B64FFF7B7FE0B6A23F00F0386
:108CE0000F2C94BF234343F00F030B62F30744BFE1
:108CF000074B0B64002DA2BF4FF00042054B5A6694
:108D000021F0C5F870BD00BF008000500040095040
:108D10003254FFFF00A000504FF00042104B70B5DE
:108D20005D6E03F580535A664AF6CD3304460D490D
:108D300080204E6C0B64FFF787FE0B6A23F4F85318
:108D400043EA04230B62F30744BF074B0B64002D77
:108D5000A2BF4FF00042054B5A6621F098F870BD53
:108D600000800050004009503254FFFF00A0005026
:108D700010B517F075FA042300F5805100F5005284
:108D80000B6113610B6113610B6113610B61136163
:108D9000202341F2020103610023C360836041612B
:108DA0004FF4A0218361836541620549C361036279
:108DB0008362C36243630365D164036310BD00BF74
:108DC000FF3F0D03F8B505461446084641B9334B3D
:108DD0009D4230D0324B9D4208BF5720FFF7D4F858
:108DE000AB68DE072FD5B0FBF4F46E68013C16F0DB
:108DF000010626D02821284617F02EFAAB6C9907D9
:108E00001BD1AB6CDA071AD4AB6C13F0020F14BF92
:108E100006270027284617F023FA2B6923F07F4303
:108E200043EA04632B61002E37D039462846BDE85B
:108E3000F84017F02FBA5620D0E70527EAE70927B0
:108E4000E8E73746E9E76B68AB6DDB07AB6848BF1F
:108E5000640003F0E003402B1BD014D8002B0CBFA0
:108E60001023082363434101B1FBF3F20D4B203A79
:108E700003EAC2022846012117F0EEF92A63BDE891
:108E8000F84017F0E9B9602B05D0802B05D10123FC
:108E9000E8E70623E6E70423E4E7F8BD0000015B0A
:108EA00000000A50F8FF7F002DE9F0419846436822
:108EB00004460E4617461BB140F6FF7117F0CCF979
:108EC0002046FFF755FFF189737B62690B43318AB6
:108ED00022F44C5222F00F020B4313436361A26849
:108EE00096F818C0337B22F0804222F0E2024CEA6E
:108EF0000303134372691343B268A3601AB9A368EA
:108F000043F00043A360F06904F58053002866D065
:108F1000857A017A6D04D4F808E045EA81556A49FA
:108F20000EEA01010D43818801F4C0410D434178EF
:108F300045EA8105417B45EAC105817B45EA01158A
:108F4000817845EA8125A560D4F80CE0D0E90415C4
:108F500029435E4D0EEA05052943857941EA8521BD
:108F6000C57941EA4521E160017801F0FD05012D57
:108F700008BFE568A1F1020104BF45F00405E56002
:108F80000129534D534976D8AC4272D0524DAC4270
:108F900014BF4FF0FF35012501EB451141F2944517
:108FA0004FF0020E41F805E0417A996219B1E1688B
:108FB00041F40061E160C17A59B1E16841F40041D6
:108FC000E16043498C4265D1017B444D01F00F01C2
:108FD0006967616AC07B21F00301014361622FB1BF
:108FE00097F8201000295FD001211962B8F1000F15
:108FF0002DD0BCF1000F02D04FF4004199653449E7
:10900000B8F822508C4298F821105AD03248844245
:1090100013D10120112934BF4FF0010C4FF0020C85
:109020002F4FB5F5006F07F800C094BF4FF0010C4B
:109030004FF0020C2B4F07F800C0A06D294320F41D
:10904000F95020F01E000143A1650121996501211D
:1090500059601AB120467168FFF7B4FE2046317896
:1090600017F018F9A36CDB4313F4405FFAD1BDE8A5
:10907000F081002590E7AC420AD0174DAC4214BFF6
:109080004FF0FF35012501EB451142F2944587E78A
:109090000025F8E710498C4201BF017B0F4D01F01C
:1090A0000F01C5F8801094E7E06997F8221097F84F
:1090B000215020F009002943014341F00101D96109
:1090C00094E70020A6E700BFE39BBDFFFFF9F08710
:1090D0000000015B00C0035000000A5000900350E4
:1090E00027200020252000202DE9F04105460F46CD
:1090F0001E4690464AB1012330221C4C8B4002FB95
:10910000004416B304F5825423603023072F4FF038
:109110000F0105FB03F3164C1AD8BA00181D1346AD
:1091200008FA02F29940204417F0E1F8B8F1000F74
:1091300009D1012330210D4ABB4001FB052296B124
:1091400002F582521360BDE8F08104F50154DBE7BB
:10915000A7F1080C4FEA8C0C03F10C0008FA0CF292
:1091600001FA0CF1DFE702F50152EBE700C0035012
:1091700030C00350013831289ABF024B185C0020E0
:10918000704700BFA4CC020838B5C2F306250446D8
:1091900002F0070241B942EA052242F440220634B5
:1091A000074B43F8242038BD1146284617F0AEF887
:1091B00002462846FFF7DEFF163442EA0022EFE7B8
:1091C000008003504FF48032064B5A6603F5E623C5
:1091D0009B69C3F38512827003F03F021B0B427040
:1091E0000370704700900050014B986CD96C704729
:1091F0000080E00F10B5044617F0EEF817F0D8F82D
:10920000502117F0AFF817F0BEF8204617F0C2F85B
:1092100017F0ECF817F0F1F8042304F5805104F589
:1092200000520B6113610B6113610B6113610B61E0
:109230001361202341F2020123610023E360A36054
:1092400061614FF4A02161620649E3612362A36179
:10925000A365A362E3622365D1642363636323632D
:1092600010BD00BFFF3F0D0370B504460D46FFF76C
:10927000C1FF23692A7823F0870313436A7A43EAFC
:10928000420343F080032361A368AA7A23F0030317
:1092900043EA420343F00103A36063692A7A23F09F
:1092A0000F031343636123696A6823F07F4343EA32
:1092B00002632361EB68002B6ED02269197922F0DA
:1092C000F80242EAC112197842EA4112D97842EA18
:1092D0000112D97A42EAC102997942EA81122261E5
:1092E000E268987C22F0F04222F4702242EAC062E6
:1092F000D87C597942EA0042987842EA802242EAD0
:10930000C132E260A268987A22F4C04242EA403256
:10931000A2605A7804F5805092028260666ADA7B15
:109320001E4802F0030230400243187B000100F0A7
:1093300070000243587B000200F4E0600243987B17
:10934000000300F4E0400243587A000400F4702067
:10935000024362621A8AA26139B1114A944211D160
:1093600074220021D87917F011F9EB689A799AB133
:109370000B4A94420BD17022BDE870400021187A4C
:1093800017F004B9074A9442EFD18022E9E7054A71
:10939000944201D17C22EFE770BD00BF8C88F0FFC2
:1093A0000000015B00000A500122437801789A40D6
:1093B00030235943014B5A50704700BF40E00350DF
:1093C000034BD3F82424D3F820041040704700BF87
:1093D00000C00350064BDA6E02F03002202A06D09D
:1093E000DA6E22F0300208B142F01002DA667047FD
:1093F000004000502DE9F8431C4B0546D3F81033CC
:109400004B1E0E2B0E46174690F80090447820D93C
:1094100021B34FF000082846EFB121F01BFC3023A8
:109420000F2103FB09F3072C88BF083C104895BFA8
:10943000A400A40004330C3308FA04F2A140184439
:1094400016F0F3FF86B9284657B1BDE8F84321F07E
:1094500001BC8846DFE7FFF7A7FFE0E78846DEE7C5
:10946000BDE8F843FFF7A0BFBDE8F88300C0035094
:1094700030C003502C4B2DE9F0411746D3F8102390
:109480004A1C06460C4605D1D3F82414407816F041
:10949000DBFF0446002C2FDB072C4FF0030532784E
:1094A0002DDC4FEA840805FA08F529461F4802FA20
:1094B00008F216F0BAFF294672781D4802F003023E
:1094C00002FA08F216F0B1FF012317F0050F194A4E
:1094D00018BF194903FA04F30CBFC2F81034C1F8DD
:1094E000103417F0060F18BF134AC2F814340123C2
:1094F000104AA340C2F820342046BDE8F081A4F110
:1095000008084FEA880805FA08F529460B4802FAC8
:1095100008F216F08AFF7278294602F00302084822
:1095200002FA08F2CEE700BF00C0035000C40350A7
:1095300008C4035000E0035000D0035004C403509B
:109540000CC4035038B505460C4C0140D4F83034F7
:1095500023EA0003C4F83034D4F830341943C4F893
:109560003014D4F82C340343C4F82C34012004F50F
:109570000054FFF72FFFC4F8205438BD00C003503B
:10958000124B70B5D3F81033064616F070FF044640
:10959000481C154616D0621C0FD08C420FD10321F7
:1095A000304685F00102FFF725FF012004F110038A
:1095B00005FA03F19840FFF7C5FF204670BD4FF054
:1095C000FF34FAE7631CEAD1F7E700BF00C003509D
:1095D000054B9A689107FCD45A689207F9D4DA6966
:1095E000002AF6D1704700BF00800A5010B5034C26
:1095F000636821F03BFB0223236110BD00800A5009
:1096000008B5FFF7E5FF0122024B03F580514A60E0
:109610001A6108BD00800A50044B10B55C68012C2B
:1096200003D1FFF7E3FF024B5C6010BD00800A50DE
:1096300000A00A5038B5074DFFF7CAFF6B68044613
:10964000012B03D1FFF7E8FFFFF7C2FF2378EB60A0
:1096500038BD00BF00800A5010B521F011FBB8B929
:109660004A680B7812B1127843EAC2034A7843EA97
:1096700042038A6812B1127843EA8213CA7843EA35
:1096800082030A6912B1127843EA4223014A9364C1
:1096900010BD00BF00800A504FF48032084B5A665C
:1096A00003F5E6239B691A0B027003F03F02427038
:1096B0004FF6FF72C3F3851342808380704700BF6B
:1096C00000900050014B986CD96C70470080E00FFF
:1096D0002DE9F04393B08946DDE91A871D4604461B
:1096E000002858D0002956D0B8F1000F53D0002FD1
:1096F00051D013F00F034ED1284829490FAE002A4C
:1097000008BF01466360216048463146A36023627A
:1097100017F01AF800283BD120460F9922F0C5FC1B
:109720002946204622F0C1FC6946484600F0E0FA8E
:1097300070BB6946204617F0BEF9484603A917F0EA
:10974000CCF828BB204603A917F0B5F9CDF8308036
:109750004FF0010845F00055CDF8348006AB0E956A
:109760000CAA07CA83E807001946204617F0A3F998
:109770000F9709ABCDF84080119596E8070083E874
:1097800007002046194622F0B6FC204621F0D8FA00
:1097900013B0BDE8F0832120FAE700BF0001000408
:1097A000000101042DE9F0410C4616461F4605460E
:1097B000A0B0002800F09480002900F09180002AD9
:1097C00000F08E80002B00F08B80036B0F2B75D880
:1097D000444B0DF17408236000234146636030461A
:1097E000A360236216F0B0FF002874D120461D99B3
:1097F00022F05BFC296B20460F2984BF01F00F018A
:10980000103122F052FC304602A900F071FA002813
:1098100061D1204602A917F04EF9304605A917F08C
:109820005CF8002857D1204605A917F044F9012318
:109830002D4AD5F830C0149508AE1593169214AA87
:1098400007CA86E807000CF00F0205F1100E42F07F
:109850000052CDF85CE00BAD1893199217AA07CA15
:1098600085E80700CDF868E01B934CF000531C938B
:109870001AAA0EABBCF10F0F07CA83E807002DD957
:109880000A9B314623F0005320460A9317F013F940
:109890002946204617F00FF901231D971E93124BFE
:1098A0001F9311AB98E8070083E80700204619468C
:1098B00022F021FC204621F043FA0CE000F12003C5
:1098C000019000930122102331462046FFF700FF4C
:1098D00000283FF47DAF20B0BDE8F0811946D8E7FD
:1098E0002120F8E700000404100000202DE9F04FCB
:1098F0000D46914698460646ADB0002800F0D68049
:10990000002900F0D380002A00F0D080002B00F066
:10991000CD80026B369B02F00F07D3181B09B3EB07
:10992000121F00F0BB80624B48460B6000234B6067
:109930000B628B6029A916F007FF0446002840F04F
:10994000A980369B284607EB030B29992BF00F0AB9
:1099500022F0ABFB5146284622F0A7FB484602A95D
:1099600000F0C6F90446002840F09480284602A979
:1099700017F0A1F8484605A916F0AFFF04460028E5
:1099800040F088804FF00109284605A917F093F8A8
:10999000484B1A961AAACDF86C901C9308AB07CACC
:1099A00083E807001946284617F085F806F11003EA
:1099B00047F00052AAEB07071D930DF12C0CCDF8D0
:1099C000789047F000571F921DAA07CA8CE807003D
:1099D000CDF8808020AACDF8849022970EAF07CAD8
:1099E00087E807000D9A614622F00052284601934D
:1099F0000D9217F060F83946284617F05CF8AAF186
:109A0000100242F0005223942A4BCDF8909011AFEF
:109A1000259223AA07CA87E8070006F120022692AA
:109A200014ACCDF89C9026AA289307CA84E80700B6
:109A3000139A394642F080421392139A284622F034
:109A40000052139222F057FB2146284622F053FB86
:109A5000184B299617ACCDF8A8902B9329AB93E817
:109A6000070084E807002146284622F044FB2846E8
:109A700021F066F9369BAAEB0B011944019B0446C1
:109A8000ABEB0A021846414418F00FF9336B369AD3
:109A90001344336320462DB0BDE8F08F10304146AB
:109AA000369A384418F001F90024EFE72124F1E751
:109AB000030200041000002000232DE9F0478EB0BF
:109AC0000E46174604460193002869D00AB10029C2
:109AD00066D037F0030807F0030A28D04FF0E063A0
:109AE0004FF0000923600123C4F80490C4F80890E3
:109AF0000896099348F000530A9308AA02AB07CAD4
:109B0000C4F8209083E807001946204622F0F3FAB3
:109B10004146204622F0C9FA204621F011F90546B7
:109B200028B142464946304618F0B4F803E0BAF18D
:109B3000000F04D1002528460EB0BDE8F0874FF095
:109B4000E0634FF00009236001ABC4F80490C4F84F
:109B500008900B9301230C93124B0EAA0D9305ABA7
:109B600012E90700C4F8209083E807001946204650
:109B700022F0C1FA0421204622F097FA204621F073
:109B8000DFF8054608B13A46CCE7019A4644EB00B7
:109B9000013522FA03F3AA4506F8013BF7D1C9E7DC
:109BA0002125C8E704000020F0B50F4616461D46E3
:109BB000044693B010B9212013B0F0BD0029FAD0AB
:109BC000002AF8D0002BF6D0002331461A4638463A
:109BD00016F059FD0028EFD1304602A916F0EAFC34
:109BE0000028E9D1EB68022B0AD039683F48029A75
:109BF00081426B6902D01830814270D19A42DAD822
:109C00002B68002BD7D14FF060626360384622602A
:109C1000A360236201A916F097FD0028CCD1019919
:109C2000204621F4F061019122F03FFA694628466E
:109C300016F08AFD0028BFD12046009922F035FA9F
:109C4000384609A900F054F80028B5D1204609A9E2
:109C500016F031FF38460CA916F03FFE0028ABD1B4
:109C600020460CA916F027FFEB684BB1284606A941
:109C700000F03EF800289FD1204606A916F01BFFF1
:109C8000304603A916F029FE002895D1B368DA04FE
:109C90000CD59B0427D50621F36932691B6801FBAB
:109CA00003225B0043F0005303920593204603A96F
:109CB00016F001FF28460FA916F00FFE00287FF4CA
:109CC0007BAF20460FA922F016FA0325204621F08B
:109CD00037F801287FF470AF013DF7D16CE7B3EBA3
:109CE000420F8DD267E7292066E700BF200000B051
:109CF00090B189B101234B60C368013B012B08D8A7
:109D00008269064B1AB10A6000208B607047044AD2
:109D1000F9E74FF00053F7E72120704708000020D3
:109D2000D8CC020806289ABF014B185C0020704767
:109D3000E0CC02082DE9F043884614461D46C5B024
:109D4000002839D0002937D0B2B3ABB3038803F46D
:109D50004F42B2F5824F04D06FF0850045B0BDE8A8
:109D6000F083DAB2122AF7D123F0FF03B3F5E24F02
:109D700025D143882B60DBB9E3002B60B3F5807FEE
:109D8000EAD1002318463F4908EB0405214415F8A1
:109D9000012D11F8014D1043121B18BF0023A845D7
:109DA00043EA0203F3D138B1002B05DA0020D5E7EE
:109DB000DA1DB4EBD20FE1D06FF08600CEE7B3F539
:109DC000824F5BD10B78042BF6D12822002118A8F2
:109DD00017F060FF18A822F05EF900284BD14FF071
:109DE000880922AF4A460021384617F053FF012365
:109DF0002022002168468DF8883017F04BFF202282
:109E0000013C08F10103002105940DEB0200E40080
:109E10000493640817F03EFF2022002110A8CDE92A
:109E20000C7917F037FFE02C6E46CDE914792C60E1
:109E300002D0B4F5807FBFD1134B07343360089351
:109E40004FF40053B3604FF48043E4080A93640076
:109E500010AB08A9324618A81194FFF7A5FE2B688D
:109E600004460733DB08590013B1384616F084FE68
:109E7000002C9BD0A0E76FF092006FE76FF0960088
:109E80006CE700BFF4CC020820000080F8B5134650
:109E900042880C460732072A4FEAD20101D0A1427C
:109EA0005AD1D0E90167058820221846002117F011
:109EB000F1FE360A034616B1012E50D1C660002CC1
:109EC0004AD041F20102954205D0B5F5885F02D033
:109ED000B5F5905F08D15C6026B1B90707F00102C3
:109EE00012D4A2B3002011E0B5F5105F07D1182CF1
:109EF00003D0202C01D0102C2ED11C60EBE705F4F0
:109F00004F42B2F5824F02D06FF08500F8BDEAB241
:109F1000122AF9D1202CF7D1124A25F0FF05B5F508
:109F2000E24F1A600CD0B5F5824F15D14FF40052B4
:109F300017F4705F09D017F4864F04D09A60E3E7F6
:109F40004FF48042F4E742F480629A60C4E79A6872
:109F500042F080729A60C5E76FF08600D6E76FF036
:109F60008B00D3E7200000802DE9F0411646002247
:109F70001C4643688CB01B0A80460D46009204D0F4
:109F8000012B56D06FF08B008EE0008820F0FF038D
:109F9000B3F5824F15D1B8F802700737FF08009764
:109FA00016F0C7FD002800F0E6800B78042B05D1E1
:109FB000013EB6EB470F05F1010504D06FF08600B6
:109FC00072E037460096224639464046FFF75EFF6C
:109FD000002869D1F21CC4E9030522F00302626182
:109FE000002F00F0AA802022002101A817F052FEC5
:109FF000394601AA4046FFF749FFDDE90176DDE970
:10A00000072C0399002840F098802368A568BB427C
:10A0100040F093806768B74240F08F808D4240F0F7
:10A020008C80A169914240F08880E26962453BD012
:10A0300083E0032EC2D90B78012B40F09F80497832
:10A0400000294BD0F73908299CD801A353F821F0F7
:10A05000B9A0000875A00008859F0008AFA00008FF
:10A06000859F0008D3A00008859F0008C3A00008B2
:10A07000CBA000084FF41056F825424F1C220021B7
:10A0800002A817F007FE03230197CDE904350396D4
:10A0900001AA09AD134603CBAB42206061601A46AA
:10A0A00004F10804F6D100200CB0BDE8F0811027BF
:10A0B0004FF08076FA25E1E720274FF00076F7256C
:10A0C000DCE7FE252F4F304ED8E7FF252D4F2F4ED2
:10A0D000D4E74FF41056FC252A4FCFE72B2E7FF6FE
:10A0E0006DAF2022204617F0D5FD05F1100315F0C5
:10A0F000030723610DD001AB05F1280C1A4628682F
:10A100006968083503C265451346F7D1286801AD73
:10A1100010606B68103E2360AB686360EB6866613B
:10A12000A3600123E3601FB12C2101A816F024FDD8
:10A130006946204616F03EFA20B12021204616F04E
:10A140001BFD3BE7B8F80030009F03F44F42B2F527
:10A15000824F0ED1DAB2122A0BD123F0FF03B3F5EE
:10A16000824F06D17B0062691C339A42BFF438AF3C
:10A17000E3E73B46F7E76FF0850095E76FF0910066
:10A1800092E700BF2000008000440002004400036A
:10A1900070B50E461446054610B96FF0860070BDC6
:10A1A0000029FAD03822002117F074FD094B24F45D
:10A1B0007E129A420AD13388B3F5105F06D1C4F3F8
:10A1C0000543102BE9D800202C60E8E76FF08500EC
:10A1D000E5E700BF0002C003F0B50E4617461C4677
:10A1E00005468DB060B302B953BB4EB354B12822BB
:10A1F000002102A817F04EFD02A821F04CFF20B16B
:10A200006FF0920420460DB0F0BD2B680F4A23F486
:10A210007E13934217D100943B46324602A9281D73
:10A22000FFF764FB044628B1212814BF6FF09204A5
:10A230006FF0860402A816F0B8F90028E2D0DFE734
:10A240006FF08604DEE76FF08804DBE70002C003EE
:10A250002DE9F0438FB0894690461D460446169F6F
:10A2600000284ED0002A4CD0002B4AD0002F48D0D6
:10A27000002946D02822002104A817F00BFD04A8CD
:10A2800021F009FF064628B16FF0920420460FB076
:10A29000BDE8F0832368102D28BF102513F47C1F20
:10A2A000C3F3054202D0954228BF1546184A23F44D
:10A2B0007E13934228D12822002104A817F0EAFC3B
:10A2C00010220021684617F0E5FC201D6B464A4627
:10A2D00004A9FFF767FA044660B1212814BF6FF0A4
:10A2E00092046FF086043E6004A816F05EF9002820
:10A2F000CCD0C9E72A466946404617F0D6FC2E4620
:10A30000F1E76FF08604C1E76FF08804BEE700BF95
:10A310000002C0032DE9F0410E4617469846044658
:10A3200000B3F9B1F2B19822002117F0B3FC314625
:10A33000069A04F16000FFF72BFF0546A0B92346FB
:10A34000424639463046FFF70FFE054660B972882F
:10A35000D208A2F110011029E26503D80A4BCB40C4
:10A36000DB0704D46FF086052846BDE8F0816369F9
:10A370001C329342F6D304F120031846216917F0EA
:10A3800094FC2061F0E700BF01010100F0B50D462B
:10A390001646044689B030B301B922BB20270021FC
:10A3A0003A46684617F076FC04F13803CDE90437E5
:10A3B0002368104AA06D23F47E139342019003D0CA
:10A3C00002F58072934211D1102803D0182801D0D1
:10A3D00020280BD1009033462A4669462046FFF7D5
:10A3E000FBFE09B0F0BD6FF08600FAE76FF0880061
:10A3F000F7E700BF0001C0032DE9F0410D46164606
:10A400001F4604468AB050B349B342B33BB34FF042
:10A4100020080021424602A817F03CFC04F1380352
:10A42000CDE906382368114AA06D23F47E139342C8
:10A43000039003D002F58072934213D1102803D009
:10A44000182801D020280DD1029033462A462046F4
:10A45000009702A9FFF7FCFE0AB0BDE8F0816FF09B
:10A460008600F9E76FF08800F6E700BF0001C0033F
:10A4700070B504460D4621F09FFD0C2C06460AD807
:10A480000C2C15D8DFE804F0181814181827141825
:10A490002B142E1431000D3CE4B2132C08D80123E8
:10A4A000174AA340134216D1062C26D0DB0721D42D
:10A4B000002321242B8009E08020FDF7B9FF4FF60F
:10A4C000FF7398420CBF0E2400242880304621F0F0
:10A4D0006EFD204670BD00230F242B80F6E74FF45D
:10A4E0008060EAE74FF44060E7E74FF4C060FDF7B3
:10A4F00081FFE4E74FF4F060F9E74FF4E060F6E73E
:10A500001C450D0030B58BB06C46814D814821F063
:10A51000D0FE0FCD0FC42B687F4A2360FF238DF838
:10A520000130D2F84C3113F4802340F0E480D2F8AB
:10A5300050218DF801309DF801306C46FF2B08BF8B
:10A540002C236846754D8DF80130FEF747F8322010
:10A55000FEF782F80FCD0FC40FCD0FC495E80300AE
:10A5600084E803006C4BD3F84C21120300F1BD804A
:10A57000D3F85041E4B28DF81940FEF729F80444AD
:10A5800084F3080466488DF81840FCF7D3FF68464A
:10A59000FDF75AFF3220FEF765F86248FEF75EF9D4
:10A5A0006148FEF7CBF9614C614821F082FE002042
:10A5B000FEF75EF8FEF708F9236F002023F007038B
:10A5C00043F003032367FEF729F9236F594923F466
:10A5D00074432367D1F8FC2012F080721EBFD1F8BB
:10A5E000FC3023F08073C1F8FC300021D4F88030B7
:10A5F00023F0030343F00103C4F880304E4BC3F84B
:10A60000801032B14B4AD2F8FC3043F08073C2F86C
:10A61000FC30464CD4F8203123F0070343F002030A
:10A62000C4F82031D4F8283123F0070343F00203A3
:10A63000C4F82831D4F8803123F0030343F0010338
:10A64000C4F88031D4F8403123F0030343F002030F
:10A65000C4F84031D4F8603123F0030343F002031F
:10A66000C4F86031D4F8403223F0030343F002030E
:10A67000C4F84032D4F8003223F0070343F0020359
:10A68000C4F80032D4F8083223F0070343F0020381
:10A69000C4F80832D4F8703223F0030343F0010306
:10A6A000C4F87032D4F8203223F0070343F00103DA
:10A6B000C4F82032FDF786FE4FF0E0220020136937
:10A6C00043F004031361D4F8603223F0070343F02E
:10A6D0000103C4F86032D4F8943223F0070343F046
:10A6E0000103C4F894320BB030BD144B1C88FF2C0E
:10A6F00088BF52243FE74FF07E6393F89C2093F984
:10A700009C30002BFFF617AF8DF8012013E700BF38
:10A7100014CD020858CD02080080E00F28CD0208B1
:10A72000005A620200B4C404C0EA21010080005053
:10A7300060CD020800ED00E0009000500001E00F45
:10A7400007B5094B186899889B7900906846ADF861
:10A7500004108DF80630FEF777FA0C20FEF7ACFAFD
:10A76000002003B05DF804FB50CD02082DE9F0474E
:10A7700005460E4621B900F049F9064600286DD07D
:10A78000337D1F2B6CD821F017FC0746354B1B6817
:10A79000183B13F1180F0FD1DFF8CC80D8F80090D8
:10A7A000ADBB424629461C2001F0A6F90446C0B1C3
:10A7B000384621F0FCFB05E0AB4206D1384621F0DB
:10A7C000F6FB12242046BDE8F0871A68B24201D099
:10A7D0009B69DDE73846002DF1D021F0E8FB23240A
:10A7E000F0E74FF0010AD8F8005000220421307D34
:10A7F00005F1100301F088F9044680B1BAF1000FA9
:10A8000002D0284621F0A5FEC8F80090D0E7B9F1A3
:10A81000000F01D1C8F800504FF0000AE5E70246EA
:10A820000421307D05F1140301F06EF9044618B1DE
:10A83000286921F08EFEE1E7294668602873A86048
:10A8400041F8186B074815F092FB304600F0BEF84F
:10A8500008213046297316F0E6FBA9E72D24B1E75D
:10A860000F24AFE7640F0020600F002020B1034BDE
:10A870001B6803600020704722207047600F002093
:10A880002DE9F0470F469046054608B9314B1D6843
:10A8900021F092FB01232E68696896F814E06FEAB4
:10A8A000010C03FA0EF3013B23EA010494FAA4F429
:10A8B000B4FA84F4A64504D821F079FB1A20BDE847
:10A8C000F0877A0707D54FF00109326909FA04F9D0
:10A8D00019EA020FF0D03A0710D50122F668A2401B
:10A8E0003242E9D0BA070BD40123A3400B436B607B
:10A8F00088F8004021F05BFB0020E0E7002FF1D159
:10A900002A7B9645F0D0AEEB020A0AF1FF395FFAD6
:10A9100089F9A145E8D301269640013EBF0706FA12
:10A920000AF609D542B10CEA060292FAA2F2B2FA8C
:10A9300082F2964588BF14464C45D5D223EA0603D9
:10A9400013EA0C0314BFB3FA83F32023C3F11F03EC
:10A95000DCB2C9E7600F002070B50E46044608B9A6
:10A960000D4B1C6823681B7DB34212D921F024FBD8
:10A97000012200256368B24023EA02036360236971
:10A9800043F82650636943F8265021F010FB28460F
:10A9900070BD2120FCE700BF600F002070B50D46A0
:10A9A0001646044608B9084B1C6823681B7DAB4259
:10A9B00008D921F001FB236943F8256021F0F7FA5B
:10A9C000002070BD2120FCE7600F002013B5046853
:10A9D000806821F06EFC0C4821F06BFC152000F023
:10A9E000BBF9152000F09CF91E23ADF804300023BC
:10A9F000204601A98DF8063015F06BFD012304F502
:10AA00008054636002B010BD64CD020800487047F6
:10AA100078CD0208F8B5134D6B6D2A6D1340124ABC
:10AA2000002B13659EB202DB01276EB9F8BD01232E
:10AA3000E9680E4AC1F304218B40284642F82130D0
:10AA4000BDE8F84020F070BBB6FA86F4C4F11F04EC
:10AA5000E4B22146284607FA04F420F065FB26EA12
:10AA60000406E2E70000045000200450680F0020B4
:10AA700070B501F05FFA0446E8B901F0E5FA21F09B
:10AA8000E9F84FF4167343430C4A03F5742303F2B9
:10AA90003F23B3FBF2F30A490A480B600A2302681A
:10AAA000094D0E68013B45F8046B0E6813F0FF0377
:10AAB0003244F6D10260204670BD00BF40420F0014
:10AAC000BC0F00208C0F0020900F0020012208B541
:10AAD000034B1A7021F08EFD024B186008BD00BFB9
:10AAE0002A200020880F002010B521F0B3F804467A
:10AAF00021F06BFA844207D921F088FD20B10122B0
:10AB0000024B1860024B1A7010BD00BF880F002066
:10AB10002A200020F8B51F4C2378E3B121F06AFD0C
:10AB20001D4B1E4D1B68C01A28602B68A3B12B68F3
:10AB30002B6021F08FF84FF416725043184A00F53D
:10AB4000742000F23F20B0FBF2F02B682B688342A8
:10AB500004D900232370F8BD0123E9E71148124E00
:10AB60000378296856F82320104F511A3A68521A70
:10AB700029683A6046F823100A210932B2FBF1F243
:10AB80000B4D0133DBB22A60B3FBF1F201FB123350
:10AB90000370DEE72A200020880F0020B80F002075
:10ABA00040420F002B200020900F00208C0F00202F
:10ABB000BC0F0020014B1868704700BFBC0F00207D
:10ABC000F8B503212C2016F03EFA04264FF480122B
:10ABD0000D4C0E4B0E4F04F500555A662C206F6736
:10ABE0006E672F672E6700F0B7F82C2000F098F8FA
:10ABF0004FF0007204F580535F675E67AA624FF4FE
:10AC000080529A62F8BD00BF0040005A0090005088
:10AC1000010000A0064B074A996D11F0050F01D005
:10AC2000117811B10028F7D170470120704700BF9B
:10AC30000040005A2C200020164B10B51C6F6007F6
:10AC400012D50421144A1167082191629B6DD9071E
:10AC500001D4FFF749FF01F0AFF801F08FF80120B0
:10AC600021F05EF821F0D4FCE20706D501220A4B60
:10AC70001A67FFF74FFF01F081F8A30042BF4FF0C2
:10AC80000052054B1A67002CBEBF4FF00042024B2A
:10AC90001A6710BD0040005A0060005A0028ACBF7F
:10ACA00000F16040064B4FEA0111C9B2ABBF00F59D
:10ACB000614000F00F0080F800131954704700BF86
:10ACC00014ED00E008B521F077F90B4B1A7872B952
:10ACD00001221A7021F06BF96FF004021046013264
:10ACE000052152B2FFF7DAFF4C2AF7D108BDBDE8C3
:10ACF000084021F05CB900BF2D20002000280CDBAB
:10AD000001220649430900F01F008240203341F828
:10AD10002320BFF34F8FBFF36F8F704700E100E038
:10AD2000002807DB01234109034A00F01F0083408C
:10AD300042F82130704700BF00E100E0054B4211AE
:10AD400053F8223000F01F0023FA00F0C04300F057
:10AD50000100704700E100E0002808DB0122430900
:10AD6000034900F01F008240603341F82320704700
:10AD700000E100E010B5044621F01EF9024B1C6012
:10AD800021F015F9002010BDC00F002010B521F0F2
:10AD900013F9034B1C6821F00AF9204610BD00BFCF
:10ADA000C00F002038B5104B05461B78ABB1B0B1D1
:10ADB00000202946286016F032F9044688B921F0AF
:10ADC000FBF82B680125094A190102EB03131D73D7
:10ADD000545021F0ECF8204638BD1124FBE7212423
:10ADE000F9E71A24F7E700BF2E200020C810002042
:10ADF00010B521F0E1F80023084A147B54B901335F
:10AE0000082B02F11002F8D1054B1C7021F0CFF88D
:10AE1000204602E021F0CBF8042010BDC81000202D
:10AE20002E2000200D4B10B51B7804468BB107284F
:10AE300011D80B4BC1B21868FFF78EFD21F0BCF89A
:10AE4000084B03EB041300241C7321F0B0F82046D8
:10AE500010BD1120FCE72120FAE700BF2E200020C2
:10AE6000C40F0020C810002010B521F0A5F8124B27
:10AE70001C781CB121F09BF8122010BD01221A7021
:10AE800021F095F80D4B0E481C731C7783F82C406D
:10AE900083F83C4083F84C4083F85C4083F86C4076
:10AEA00083F87C4021F005FA064821F002FA0648B2
:10AEB000FFF7DCFC2046E0E72E200020C810002031
:10AEC00068CD020864CD0208C40F0020F8B504461E
:10AED0001648007820B3072C24D8154D260105EB21
:10AEE0000410077B07B3AB510025069B85604360C8
:10AEF000134610480A46214615F0FEFA01230E4A71
:10AF0000A34053650D4BE1B253F824200C4B186855
:10AF1000FFF744FD0748214615F02CFB2846F8BDF5
:10AF20001120FCE72120FAE72520F8E72E20002059
:10AF3000C81000200000045000100450D4CD0208B6
:10AF4000C40F00202DE9F04F87B098469DF840309F
:10AF5000044600933D4B8B461B789146002B6FD0E7
:10AF600007286FD8002A6DD0B8F1000F6AD0119B66
:10AF7000B3F5006F66D8DFF8F0A003010AEB00120A
:10AF8000127B0193002A5FD00021314D102205EB86
:10AF9000401647013046CDE90311059116F07AFEBF
:10AFA0004FF444727280DDE900231AB9F27842F05E
:10AFB0003002F270DBF80020E9190292119AC1E91F
:10AFC0000189501E9DF84820C0F30A0002F00302D8
:10AFD000920642EA001CEA591E4810404CEA000260
:10AFE000EA51139A52B38A78C2F300123D44A97809
:10AFF00062F30411A970002513990AEB03024AF8C1
:10B000000310149B95605360134BE1B253F8242056
:10B01000124B1868FFF7C2FC334602AA21461048BB
:10B0200015F06AFA0E48214615F0A4FA01232846C5
:10B030000C4AA340536507B0BDE8F08F139AD5E7DB
:10B040001120F8E72120F6E72520F4E72E20002044
:10B05000C80F00200F80FFF3D4CD0208C40F0020DA
:10B060000000045000100450C81000200A4B1B7848
:10B0700063B107280CD8094B03EB00131B7B4BB1C2
:10B080000123074A83401364002070471120704752
:10B0900021207047252070472E200020C810002056
:10B0A000001004500A4B1B7863B107280CD8094BD9
:10B0B00003EB00131B7B4BB10123074A834013644E
:10B0C00000207047112070472120704725207047CD
:10B0D0002E200020C81000200020045038B504465F
:10B0E000D0F8A4301D68AB6C5906FCD5002394F849
:10B0F000AD101A4694F8AC00FDF7F6FF002394F863
:10B10000AF101A4694F8AE00FDF7EEFF94F8B43095
:10B11000DA0707D5002394F8B1101A4694F8B00066
:10B12000FDF7E2FF94F8B4309B0707D5002394F8AD
:10B13000B3101A4694F8B200FDF7D6FF012205F5C8
:10B1400000531A65042200211A652846094D15F09E
:10B15000A1F8D4F8A80021F0AFF8284604F1B8010E
:10B1600014F018FF2B6813B9034800F083FD00208A
:10B1700038BD00BF481100204C110020012910B536
:10B1800002D9022913D010BD124B1C68B83C14F12F
:10B19000B80FF8D0D4F8A80021F08BF8D4F8A43078
:10B1A0000521186815F076F8D4F8B840EEE7094B99
:10B1B0001C68B83C14F1B80FE5D094F8973033B957
:10B1C00094F895301BB9D4F8A80021F075F8D4F89C
:10B1D000B840EEE7481100202DE9F0471D461368FE
:10B1E0008EB01F6891F8313081468846144606AE0D
:10B1F000002B00F0F180DFF820C2BCE80F000FC682
:10B200009CE80F0086E80F0018220021684616F01F
:10B2100041FDA26803460892227B012A00F0DF80EC
:10B22000022A0CBF4FF440720022ADF82620627B48
:10B230000D93032A8CBF4FF480526C49A37B98BFB7
:10B2400031F812204FF0010AADF828205A1E022AC8
:10B2500088BF0023664A8DF80030D8F838308DF862
:10B2600006A01A60634A29465A60634A48469A60B3
:10B27000624ADA60424600F019FB0646002840F0B8
:10B28000A78023695E48C5F8A830237E85F8AF30D3
:10B29000E37D85F8AE30A37D85F8AD30637D85F81C
:10B2A000AC30A37E85F8B130637E85F8B030237F63
:10B2B00085F8B330E37E85F8B2302368C5F8A43052
:10B2C00020F0F7FF53460422A17D607DFDF70CFFBF
:10B2D0005346217E0222E07DFDF706FF85F8B4602B
:10B2E000206920F0E6FF98F83130384606A9002B97
:10B2F00078D014F0F6FF95F8B43043F0040385F8E5
:10B30000B4301421227D3F4B03EB4210C0F894145B
:10B3100094F816C0617D253241EA0C41C0F8AC14A6
:10B32000207EE17D03EB421341EA00415960A37B9B
:10B3300003F0FD03012B0BD195F8B430022243F04A
:10B34000010385F8B430A17E0023607EFDF7CCFEBA
:10B35000A37B023B012B0BD895F8B430042243F0B9
:10B36000020385F8B430217F0023E07EFDF7BCFEA8
:10B3700095F8B430DB0717D5A17E627E237D42EAC3
:10B38000014241F29C415B0103F1A04303F570339C
:10B390005A5041F2944202219950217FE27E03F5F6
:10B3A000A55342EA01421A60174B1B681BB91749A3
:10B3B000174800F04DFC144805F1B80114F0D7FD12
:10B3C000144A07F5005305213846DA6414F062FF89
:10B3D00030460EB0BDE8F087DFF840C00DE74FF40F
:10B3E000007222E714F081FF8BE700BFF4CD020862
:10B3F000FB1002082D11020811110208DDB000082F
:10B400006CCD020800C003504811002054230020D6
:10B410004C110020FF3F0D03FCCD02081CCE02089A
:10B42000034B0222186800238068194601F0E8BD2A
:10B43000C4230020302337B5007D0DF107014343BD
:10B4400003F1A04303F58023DD6E1C6F1FF0D2FED5
:10B450009DF8070040B9054B9D4203D1C4F3400459
:10B4600084F0010003B030BD0120FBE72F20002055
:10B470003021037D02464B4303F1A04303F58023B3
:10B48000D86E07491B6F884208D113F0020006D01E
:10B49000106A136D1B1A58425841704700207047BC
:10B4A0002F20002070B5044608B9012070BD057D2D
:10B4B0002846FFF7DBFD30236B4303F1A04303F580
:10B4C00080232846DE6EFFF7EDFD0A4B9E421CBF2F
:10B4D000042384F8A13094F8953094F8A1002BB19E
:10B4E000022803D1012384F8A130DFE70428DCD14E
:10B4F000F8E700BF2F2000202DE9F04F04464FF45D
:10B5000044764FF030093F4D00F1380710220021FA
:10B5100085B0384616F0BEFB6687C4E90F55207D1E
:10B52000FFF7A4FD10220021384616F0B3FB668712
:10B53000207D354EC4E90F5509FB0063DB6EAB423D
:10B5400004D105B0BDE8F04FFFF7ACBD0DF10B0124
:10B550001FF050FE9DF80B50002D4CD1204615F0E9
:10B5600028FE804603A9207D1FF064FE039B294628
:10B57000013B1FFA83FB04F118031D4610221846F5
:10B58000D4F810A016F086FBA169204ACBF30A0379
:10B590001B010A4043F040731343C4E9063A237D7C
:10B5A000C4F8208009FB0366336F94F824205B08FD
:10B5B00063F3410284F82420326F94F8243025F09C
:10B5C000030562F3000384F82430336F626A9B083A
:10B5D00063F39F0245F002056262656400943A4697
:10B5E00021460B4B207DFFF771FC207DFFF75AFDB4
:10B5F00005B0BDE8F08F94F8443023F0020384F8DE
:10B600004430EBE72F200020000004500F80FFFCA7
:10B61000DF1102082DE9F7434469064694F8953096
:10B6200063B194F898304BB1002384F8953020F042
:10B63000C2FE236E012120469B689847336904F1BE
:10B640007C07013B102200213846D6F80C90D4F834
:10B6500074809DB216F01EFB0B4BC5F30A0543EA3E
:10B660000513C4E91F39012394F8780084F88C305D
:10B67000C4F884803A46054B009604F16401FFF754
:10B6800025FC03B0BDE8F0830000103095120208DD
:10B690002DE9F04F0026044698468BB0089106929B
:10B6A0001E60069BB3EB060900F09F80089B9E1965
:10B6B00000F09B80207DFFF7D9FC2046FFF7D8FEE5
:10B6C0000746207DFFF7EEFC002F40F08E802046DD
:10B6D00015F06FFD216D94F89AB088429BBFD4E9B4
:10B6E0001253ED18451A6D1A4D4528BF4D46BBF152
:10B6F000000F00F09F8020F05FFCD4F8509007907E
:10B700002046FFF797FE4B46A946824658199842B5
:10B71000D4F89C2072D1D4E912130B449A420798B2
:10B7200008BFC4F89C1020F042FCD346207DFFF7F0
:10B730009DFC2046FFF77EFE0646204615F039FDAB
:10B74000236D8246984240F28380A26CAEB293424F
:10B7500076D1099304F12807236910223846002185
:10B76000079316F097FA3022079B013EE362099B8C
:10B77000C6F30A062363237D3601534327F00307EC
:10B7800003F1A04346F0407647F0020703F580231B
:10B79000A6621F67236DD4E912122B440A44934218
:10B7A00008BF0B469A45236505D10123204684F83E
:10B7B0005430FFF7A1FE207DFFF774FC94F89A3017
:10B7C0003BB1BBF1000F04D0236E112120465B6812
:10B7D0009847D8F80060B9F1000F06D0069B4E4498
:10B7E0009E42C8F80060FFF45CAFD8F80030002B30
:10B7F00014BF00201B200BB0BDE8F08F934203F173
:10B80000010108BFC4F89C101B7808BF5F4603F015
:10B81000FD0CBCF1110F03D006F8013B0B4676E797
:10B820002FB1A3F111025342534184F8A03009F122
:10B83000FF39F3E72A46304616F037FAA94675E78E
:10B84000238DC3F30A12164466F30E132385A1E772
:10B85000207D86B93023584300F1A04000F58020B8
:10B86000426E436EC2F30A122A446FF30E1343EA88
:10B87000021343668EE70C4B049403930023CDE937
:10B88000015301230093524623692146FFF75AFBD7
:10B890003022237D534303F1A04303F580235A6EE6
:10B8A00022F480125A6675E7DF110208F0B50C46E3
:10B8B00015460646A422002189B0204616F0EAF972
:10B8C0002746AC46BCE80F000FC7DCF8003005F196
:10B8D000140C3B6004F16407BCE80F000FC7DCF8F0
:10B8E0000030EA6A3B60AB6AC4E9132395F8302064
:10B8F000A36484F8992095F83320C4F89C30012380
:10B9000084F89A2084F8A03084F85430AB6B236616
:10B9100095F8343084F8943095F8313084F89830C4
:10B920003E4B346073603E4BB3603E4BF3603E4B26
:10B9300073613E4BB3613E4B3361FFF795FA08B13B
:10B9400012280CD107A8FFF72DFA40B9079B07A8CA
:10B950002375FFF727FA28B1207DFFF763FA10203F
:10B9600009B0F0BD0127079B84F87830314B736232
:10B97000314B84F8A170F361304B95F8321033628B
:10B9800084F8960084F89570204615F026FDAB6B80
:10B9900093F91100FFF7E0F9AB6B93F91100FFF792
:10B9A000BFF9207DFFF762FB0028D8D1244B049417
:10B9B000CDE90203E36C2146CDE900732369A26C53
:10B9C000207DFFF7BFFA0028C9D13022237D4FF434
:10B9D0008011534342F2640203F1A04303F5802334
:10B9E0009950AB6B93F91000FFF7B6F9AB6B93F975
:10B9F0001000FFF795F904F1900014F0B5FA304605
:10BA0000FFF7B8F92046FFF777FD207DFFF74AFBE7
:10BA1000003818BF01200001A2E700BFBD120208D4
:10BA20004F12020891B60008A1110208A7110208DE
:10BA300043140208A5B40008DB130208AD11020884
:10BA4000DF11020870B50568144E2C7D2046FFF703
:10BA50000DFB302303FB0463DA6E114B9A420FD1C6
:10BA60002846FFF7E7FC80B120F0A6FA01230D4A33
:10BA7000A3405365A2F580529362536320F097FA76
:10BA80002046BDE87040FFF70DBB2846FFF7F0FCED
:10BA90000028F5D10123A340B364F1E7000004506E
:10BAA0002F2000200020045013B50A4C23787BB9C6
:10BAB00000F040F8684600F035F8DDE900010222A8
:10BAC000054B15F02DFF08B90123237002B010BDFE
:10BAD0001220FBE7302000205411002007B500930E
:10BAE00013460A460146034815F05AFD03B05DF8B7
